0029029070999991901010106004+64333+023450FM-12+000599999V0202701N015919999999N0000001N9-00781+99999102001ADDGF108991999999999999999999
0029029070999991901010113004+64333+023450FM-12+000599999V0202901N008219999999N0000001N9-00721+99999102001ADDGF104991999999999999999999
0029029070999991901010120004+64333+023450FM-12+000599999V0209991C000019999999N0000001N9-00941+99999102001ADDGF108991999999999999999999
0029029070999991901010206004+64333+023450FM-12+000599999V0201801N008219999999N0000001N9-00611+99999101831ADDGF108991999999999999999999
0035029070999991902010106004+64333+023450FM-12+000599999V0201401N011819999999N0000001N9-00941+99999100551ADDGF104991999999999999999999MW1381
0035029070999991902010113004+64333+023450FM-12+000599999V0201401N011819999999N0000001N9-01001+99999100311ADDGF104991999999999999999999MW1381
0035029070999991902010120004+64333+023450FM-12+000599999V0201401N013919999999N0000001N9-01171+99999100121ADDGF108991999999999999999999MW1381
0035029070999991902010206004+64333+023450FM-12+000599999V0200901N009819999999N0000001N9-01611+99999100121ADDGF108991999999999999999999MW1381
